:100000000C9463000C948B000C948B000C945E0792
:100010000C945E070C945E070C948B000C948B0080
:100020000C948B000C948B000C948B000C948B0024
:100030000C948B000C948B000C948B000C948B0014
:100040000C9414070C948B000C94E2060C94BC06E0
:100050000C948B000C948B000C948B000C948B00F4
:100060000C948B000C948B000000000024002700EF
:100070002A0000000008000201000003040700003D
:1000800000000000000000000000230026002900FE
:1000900000000000250028002B00040404040404D0
:1000A0000404020202020202030303030303010227
:1000B00004081020408001020408102001020408F6
:1000C0001020D607710E11241FBECFEFD8E0DEBF7F
:1000D000CDBF23E0A2E8B1E001C01D92AB32B20770
:1000E000E1F711E0A0E0B1E0ECEFF2E202C0059030
:1000F0000D92A238B107D9F710E0C2E6D0E004C0F3
:100100002197FE010E944F11C136D107C9F70E9405
:1001100032090C9471110C9400000F931F93CF932C
:10012000DF93C091D702E8EDF2E0CD3211F0E7EDB8
:10013000F2E08F0120E030E0A901D801DD918D01CE
:1001400080ED8D0F8A3090F4AAE0B0E00E94D70FC6
:100150002D2FDD0F330B440B550B260F371F481F78
:10016000591F2053310941095109E7CFA4E6B0E0F6
:100170000E94D70FAB01BC01DF01819190ED980F78
:100180009A30D0F38E3259F511968C91119790EDEB
:10019000980F9A3020F5082E000C990BC0972AE092
:1001A000289F8001299F100D1124012E000C220B85
:1001B000330B400F511F621F731F12968C9190EDED
:1001C000980F9A3060F4082E000C990BC097092EF6
:1001D000000CAA0BBB0B480F591F6A1F7B1FCD32A7
:1001E00039F470956095509541955F4F6F4F7F4FF3
:1001F000CB01BA01DF91CF911F910F9108954F92DA
:100200005F926F927F928F929F92AF92BF92CF92A6
:10021000DF92EF92FF921F93CF93DF93C7EDD2E06F
:10022000FE01C12CD12C7601119180ED810F8A3015
:10023000A8F4AAE0B0E0A70196010E94D70FC12E52
:10024000110FDD08EE08FF08C60ED71EE81EF91EC6
:1002500080E3C81AD108E108F108E6CFC701B6016A
:1002600024E630E040E050E00E942D119B01AC01FB
:1002700060EA76E881E090E00E9409114B015C01A0
:100280009E01899190ED980F9A30D0F38E3221F52E
:10029000E901219680E1482E87E2582E612C712CCD
:1002A000A99180ED8A0F8A30B8F40A2E000CBB0B9E
:1002B000D097A30192010E945511860E971EA81E89
:1002C000B91EC301B2012AE030E040E050E00E94D4
:1002D0002D1129013A01E4CFC701B60124E630E02F
:1002E00040E050E00E942D1160E472E48FE090E065
:1002F0000E9409116B017C01C501B4016D5F7F4F44
:100300008F4F9F4F26E030E040E050E00E942D11DB
:10031000C701B601620F731F841F951FDF91CF9134
:100320001F91FF90EF90DF90CF90BF90AF909F9084
:100330008F907F906F905F904F900895AF92BF9293
:10034000CF92DF92EF92FF920F931F93CF93DF93A1
:100350006C017B018B01040F151FEB015E01AE18D0
:10036000BF08C017D10759F06991D601ED91FC91F2
:100370000190F081E02DC6010995892B79F7C5011F
:10038000DF91CF911F910F91FF90EF90DF90CF9071
:10039000BF90AF900895FC01538D448D252F30E020
:1003A000842F90E0821B930B541710F0CF96089582
:1003B00001970895FC01918D828D981761F0A28DAF
:1003C000AE0FBF2FB11D5D968C91928D9F5F9F7375
:1003D000928F90E008958FEF9FEF0895FC01918D2B
:1003E000828D981731F0828DE80FF11D858D90E098
:1003F00008958FEF9FEF0895FC01918D228D892F35
:1004000090E0805C9F4F821B91098F73992708951C
:1004100084EE91E00E94FC0121E0892B09F420E0A8
:10042000822F089580E090E0892B29F00E94080235
:1004300081110C9400000895FC01A48DA80FB92F20
:10044000B11DA35ABF4F2C91848D90E001968F73FC
:100450009927848FA689B7892C93A089B1898C911B
:10046000837080648C93938D848D981306C002886A
:10047000F389E02D80818F7D80830895EF92FF9234
:100480000F931F93CF93DF93EC0181E0888F9B8DB7
:100490008C8D98131AC0E889F989808185FF15C071
:1004A0009FB7F894EE89FF896083E889F989808194
:1004B0008370806480839FBF81E090E0DF91CF9163
:1004C0001F910F91FF90EF900895F62E0B8D10E085
:1004D0000F5F1F4F0F731127E02E8C8D8E110CC0F4
:1004E0000FB607FCFACFE889F989808185FFF5CF3F
:1004F000CE010E941C02F1CFEB8DEC0FFD2FF11D00
:10050000E35AFF4FF0829FB7F8940B8FEA89FB897B
:1005100080818062CFCFCF93DF93EC01888D8823D9
:10052000B9F0AA89BB89E889F9898C9185FD03C056
:10053000808186FD0DC00FB607FCF7CF8C9185FF3B
:10054000F2CF808185FFEDCFCE010E941C02E9CF62
:10055000DF91CF91089590E0FC01EE58FF4F249178
:10056000FC01E255FF4F3491FC01E656FF4FE49148
:10057000EE23C9F0222339F0233001F1A8F4213011
:1005800019F1223029F1F0E0EE0FFF1FE057FF4F85
:10059000A591B4918FB7F894EC91611126C0309574
:1005A0003E233C938FBF08952730A9F02830C9F02F
:1005B000243049F7809180008F7D03C080918000B6
:1005C0008F7780938000DFCF84B58F7784BDDBCFBA
:1005D00084B58F7DFBCF8091B0008F778093B00082
:1005E000D2CF8091B0008F7DF9CF3E2BDACFCF9361
:1005F000DF9390E0FC01E255FF4F249186569F4F18
:10060000FC0184918823D1F090E0880F991FFC01B0
:10061000E859FF4FA591B491FC01E057FF4FC591F8
:10062000D49161110EC09FB7F8948C91E22FE095A0
:100630008E238C932881E223E8839FBFDF91CF91A3
:1006400008958FB7F894EC91E22BEC938FBFF6CF1F
:100650008E50806480937C0080917A0080648093C7
:100660007A0080917A0086FDFCCF8091780090918D
:10067000790008953FB7F8948091CB019091CC0117
:10068000A091CD01B091CE0126B5A89B05C02F3F0A
:1006900019F00196A11DB11D3FBFBA2FA92F982FA8
:1006A0008827BC01CD01620F711D811D911D42E0A3
:1006B000660F771F881F991F4A95D1F708958F926B
:1006C0009F92AF92BF92CF92DF92EF92FF924B0137
:1006D0005C010E943A036B017C010E943A036C1991
:1006E0007D098E099F09683E734081059105A8F335
:1006F00021E0821A9108A108B10888EEC80E83E0B3
:10070000D81EE11CF11C81149104A104B10429F745
:10071000FF90EF90DF90CF90BF90AF909F908F9021
:1007200008952FB7F8946091C7017091C801809126
:10073000C9019091CA012FBF089508952091C40165
:100740003091C5012817390771F49091C301809148
:10075000C201981741F0E091C301F0E0EE57FE4F5F
:10076000808190E008958FEF9FEF08950895EF92B4
:10077000FF920F931F93CF93DF93DC015C96ED9074
:10078000FC905D97E114F10479F481E090E0139618
:100790009C938E93129790E080E0DF91CF911F9110
:1007A0000F91FF90EF9008955196ED91FC91529723
:1007B00050968C915097982F90950FB75E962C91EC
:1007C0005E97122F127021FD6095F89420811123FD
:1007D00019F1282B2083E7012197F1F728E0462F14
:1007E00050E0308160FF1AC0382B3083E701219739
:1007F000F1F7BA0175956795215089F7112381F0BA
:100800008081892380830FBF5C968D919C91019795
:10081000F1F781E090E0C1CF2923DCCF3923E5CF88
:100820009081892BEFCF2091C4013091C501281709
:10083000390771F48091C2012091C30190E0805C7E
:100840009F4F821B910960E470E00E941911089586
:1008500090E080E008952091C4013091C5012817EF
:100860003907B9F49091C3018091C201981789F0BA
:10087000E091C301F0E0EE57FE4F80812091C3016B
:1008800030E02F5F3F4F2F7333272093C30190E059
:1008900008958FEF9FEF089590E080E00895CF9343
:1008A000DF93EC0160E08E810E94AB0261E08E81FB
:1008B0000E94AB0260E08E810E94AB028BE891E067
:1008C0000197F1F7DF91CF910895CF92DF92EF92E8
:1008D000FF920F931F93CF93DF936C017C0187E00E
:1008E000E80EF11CD0E0C0E0062F10E0B8010C2E9D
:1008F00002C0759567950A94E2F76170F7018191DE
:100900007F010E94AB022196C430D10579F7C60160
:10091000DF91CF911F910F91FF90EF90DF90CF90DB
:100920000C944F04CF92DF92EF92FF920F931F939C
:10093000CF93DF93EC01F62E642F8C810E94AB02E3
:100940008D818F3F19F060E00E94AB020F2D10E007
:100950008F8584FF25C06E0187E0C80ED11CF12C65
:10096000E12CB8010E2C02C0759567950A94E2F748
:100970006170F60181916F010E94AB02FFEFEF1AE7
:10098000FF0A88E0E816F10461F7CE01DF91CF910C
:100990001F910F91FF90EF90DF90CF900C944F0438
:1009A000B80184E0759567958A95E1F7CE010E94BC
:1009B00065046F2DCE01DF91CF911F910F91FF90B4
:1009C000EF90DF90CF900C94650440E0682F83E1B6
:1009D00093E00C94920481E00E94E5048BE39FE194
:1009E0000197F1F70895CF93DF93823029F4909126
:1009F000220398609093220380932603109227038A
:100A000080E48093280380E18093290380E580932C
:100A10002A0361E0809117030E94F7028091180376
:100A20008F3F19F061E00E94F70261E080911903A5
:100A30000E94F702C3E1D3E09E012351334080912D
:100A4000220384FD0BC084E090E02196281739072B
:100A500044F461E08E810E94F702EECF88E090E0DE
:100A6000F4CF8BE39DE00197F1F760E080911703ED
:100A70000E94AB0260E0809119030E94AB0280915A
:100A800018038F3F19F060E00E94AB0280912203AF
:100A900084FD34C063E083E193E00E946504CBE40D
:100AA000D6E4CE010197F1F763E083E193E00E9481
:100AB00065042197F1F763E083E193E00E94650408
:100AC00083E592E00197F1F762E083E193E00E9411
:100AD00065048091220380620E94E50484E0809393
:100AE00023038CE00E94E5040E94EB0482E08093E3
:100AF000240386E0DF91CF910C94E50480620E948C
:100B0000E5048BE496E40197F1F78091220380627B
:100B10000E94E50483E592E00197F1F780912203BA
:100B200080620E94E504D5CF41E00E94920481E0FA
:100B300090E00895FB0101900020E9F73197AF01A3
:100B4000461B570BDC01ED91FC910280F381E02DF7
:100B500009948F929F92AF92BF920F931F93CF935E
:100B6000DF93CDB7DEB7A1970FB6F894DEBF0FBE07
:100B7000CDBF19A2423008F44AE08E010F5D1F4F2D
:100B8000842E912CB12CA12CA50194010E942D1131
:100B9000E62FB901CA01EA3004F5E05DD801EE9311
:100BA0008D01232B242B252B79F790E080E01097E3
:100BB00029F0BD0184EE91E00E949A05A1960FB63E
:100BC000F894DEBF0FBECDBFDF91CF911F910F9183
:100BD000BF90AF909F908F900895E95CDFCF4F92C8
:100BE0005F926F927F928F929F92AF92BF92CF92BD
:100BF000DF92EF92FF926B017C01AC019B010E949E
:100C0000041160E371E081111AC046015701E894B4
:100C1000B7F82FEF3FEF4FE75FE7C501B4010E9440
:100C20000411811126C02FEF3FEF4FE75FE7C501A9
:100C3000B4010E94B30E1816E4F464E371E084EE8C
:100C400091E00E949A057C016CE371E084EE91E0F2
:100C50000E949A058E0D9F1DFF90EF90DF90CF9020
:100C6000BF90AF909F908F907F906F905F904F90CC
:100C700008952FEF3FEF4FE75FE4C701B6010E94F1
:100C8000FF1018161CF468E371E0D9CF2FEF3FEF87
:100C90004FE75FECC701B6010E94B30E87FDF3CFAB
:100CA00020E030E0A901C701B6010E94B30EB12CCB
:100CB000A12C87FF0AC06DE284EE91E00E943E0203
:100CC0005C01F7FAF094F7F8F0942AE037ED43EA84
:100CD0005BE3C701B6010E94F20F2B013C010E94A9
:100CE000D0106B017C010E94B80E9B01AC01C301C6
:100CF000B2010E94F10F2B013C014AE0C701B6018D
:100D00000E94A9057C01EA0CFB1C6EE284EE91E0D6
:100D10000E943E02E80EF91E20E030E040E251E47D
:100D2000C301B2010E94190F2B013C010E94D01097
:100D30004B01B12CA12C4AE0C501B4010E94A905C8
:100D4000E80EF91EC501B4010E94B80E9B01AC016A
:100D5000C301B2010E94F10F20E030E040E251E413
:100D60000E94190F0E94D01090E080E04AE00E949B
:100D7000A905E80EF91E68CF1F920F920FB60F92C9
:100D800011242F933F934F935F936F937F938F9390
:100D90009F93AF93BF93EF93FF9384EE91E00E94F4
:100DA0001C02FF91EF91BF91AF919F918F917F9125
:100DB0006F915F914F913F912F910F900FBE0F90C8
:100DC0001F9018951F920F920FB60F9211242F9318
:100DD0008F939F93EF93FF93E091F401F091F501CE
:100DE0008081E091FA01F091FB0182FD1BC09081AE
:100DF0008091FD018F5F8F732091FE01821741F07A
:100E0000E091FD01F0E0EC51FE4F958F8093FD01E4
:100E1000FF91EF919F918F912F910F900FBE0F90A7
:100E20001F9018958081F4CF1F920F920FB60F92EA
:100E300011242F933F938F939F93AF93BF938091F0
:100E4000C7019091C801A091C901B091CA01309128
:100E5000C60123E0230F2D3758F50196A11DB11DC2
:100E60002093C6018093C7019093C801A093C90144
:100E7000B093CA018091CB019091CC01A091CD019A
:100E8000B091CE010196A11DB11D8093CB0190932D
:100E9000CC01A093CD01B093CE01BF91AF919F91B2
:100EA0008F913F912F910F900FBE0F901F9018952B
:100EB00026E8230F0296A11DB11DD2CF1F920F92DB
:100EC0000FB60F9211242F933F934F935F936F931D
:100ED0007F938F939F93AF93BF93EF93FF93E09193
:100EE000C401F091C501309749F0A685B785858585
:100EF000968D91FF14C09C918923A1F4FF91EF91ED
:100F0000BF91AF919F918F917F916F915F914F9121
:100F10003F912F910F900FBE0F901F9018959C91AD
:100F2000892361F7A389B4899C9185898095892358
:100F30008C93868997890197F1F7608D718DA685CD
:100F4000B785558538E020E0CB010197F1F7822F76
:100F500090E095958795282F4C91452309F02068BE
:100F6000315091F7868D81FD20958091C20190E0EE
:100F700001968F7399273091C301381799F0A0918A
:100F8000C201B0E0AE57BE4F2C938093C201828D58
:100F9000938D0197F1F7A389B4898C919589892B59
:100FA0008C93ACCF868D8160868FF1CFCF92DF920C
:100FB000EF92FF921092E7011092E60198EEC92E8F
:100FC00093E0D92EE12CF12CC092E801D092E901F6
:100FD000E092EA01F092EB0184E091E09093E50168
:100FE0008093E40185EC90E09093F1018093F0010F
:100FF00084EC90E09093F3018093F20180EC90E018
:101000009093F5018093F40181EC90E09093F701C7
:101010008093F60182EC90E09093F9018093F801BF
:1010200086EC90E09093FB018093FA011092FD0111
:101030001092FE011092FF0110920002109216030E
:101040001092150388E291E09093140380931303A8
:1010500084E0809317038FEF8093180385E08093DB
:10106000190386E080931A0387E080931B0388E0CE
:1010700080931C0389E080931D0310921E0310923D
:101080001F0310922003109221031092220381E08B
:101090000E94F3041092F7021092F602C092F80236
:1010A000D092F902E092FA02F092FB0286E191E01E
:1010B0009093F5028093F40210920B0310920A03AE
:1010C00010920D0310920C0310920F0310920E0356
:1010D0001092110310921003609112036E7F6D7FC6
:1010E000609312036695617081E0682783E00E9437
:1010F000AB0261E083E00E94F702E1EBF0E0E491F3
:10110000E0930403EDE9F0E0E491F0E0EE0FFF1F5F
:10111000E057FF4F859194919093060380930503C8
:1011200060E082E00E94F7028091120381FD04C01A
:1011300061E082E00E94AB0222E020930003E0EB3A
:10114000F0E0E491E0930103ECE9F0E0E491F0E0F9
:10115000EE0FFF1FEA57FF4F859194919093030381
:10116000809302034FEF5FEFBA01409381025093E7
:10117000820260938302709384021092890210921B
:101180008A0210928B0210928C028FEF99ECAAE9DE
:10119000BBE38093910290939202A0939302B09349
:1011A00094028093990290939A02A0939B02B09329
:1011B0009C028093A1029093A202A093A302B093F9
:1011C000A4028093A9029093AA02A093AB02B093C9
:1011D000AC028093B1029093B202A093B302B09399
:1011E000B4024093B9025093BA026093BB02709369
:1011F000BC028FEF90E09093C2028093C1024093B3
:10120000C5025093C6026093C7027093C802409310
:10121000CD025093CE026093CF027093D002109211
:10122000D5021092D6022093E6021092E7021092A5
:10123000E8021092E9021092EA021092EB02109278
:10124000EC021092ED021092EF021092EE02109258
:10125000F1021092F0021092D702FF90EF90DF900F
:10126000CF900895CF93DF93CDB7DEB72C970FB60D
:10127000F894DEBF0FBECDBF789484B5826084BD84
:1012800084B5816084BD85B5826085BD85B581608A
:1012900085BD80916E00816080936E001092810008
:1012A00080918100826080938100809181008160C3
:1012B0008093810080918000816080938000809184
:1012C000B10084608093B1008091B0008160809310
:1012D000B00080917A00846080937A0080917A00D7
:1012E000826080937A0080917A00816080937A0096
:1012F00080917A00806880937A001092C100E0911A
:10130000F401F091F50182E08083E091F001F09129
:10131000F1011082E091F201F091F3018FEC8083F2
:101320001092FC01E091F801F091F90186E08083D0
:10133000E091F601F091F701808180618083E09176
:10134000F601F091F701808188608083E091F601D9
:10135000F091F701808180688083E091F601F0913F
:10136000F70180818F7D808382E00E94F3048EE00C
:101370000E942803BC01990F880B990B0E94BA0E9A
:101380006093E0017093E1018093E2019093E301A7
:101390008FE00E942803BC01990F880B990B0E94D3
:1013A000BA0E6093DC017093DD018093DE019093AF
:1013B000DF0180E10E942803BC01990F880B990B83
:1013C0000E94BA0E6093D8017093D9018093DA011C
:1013D0009093DB016FE371E083E193E00E949A0553
:1013E000E0912603E23008F082C1E150F0E0ED5ECA
:1013F000FC4F848980680E94E50468E471E083E121
:1014000093E00E949A050E94EB0411E080E0282EF0
:1014100080E0382E8EE00E942803BC01990F880BD3
:10142000990B0E94BA0E69837A838B839C838FE029
:101430000E942803BC01990F880B990B0E94BA0ED9
:101440006D837E838F83988780E10E942803BC018F
:10145000990F880B990B0E94BA0E69877A878B8740
:101460009C872091E0013091E1014091E20150918F
:10147000E30169817A818B819C810E94F10F2B01AC
:101480003C0120E030E0A9010E94FF10181624F072
:1014900077FA709477F870942091DC013091DD0137
:1014A0004091DE015091DF016D817E818F819885B1
:1014B0000E94F10F4B015C0120E030E0A9010E9485
:1014C000FF10181624F0B7FAB094B7F8B094209132
:1014D000D8013091D9014091DA015091DB01698541
:1014E0007A858B859C850E94F10F6B017C0120E041
:1014F00030E0A9010E94FF10181624F0F7FAF094CA
:10150000F7F8F09420E030E048EC52E4C301B20177
:101510000E94FF1087FF14C020E030E048EC52E446
:10152000C501B4010E94FF1087FF0AC020E030E02F
:1015300048EC52E4C701B6010E94FF1087FDB2C318
:1015400069817A818B819C810E94EF056D817E810A
:101550008F8198850E94EF0569857A858B859C85AA
:101560000E94EF058091D701811174C00E94910300
:101570004B015C01E12C0E949103681979098A09E9
:101580009B09643F71408105910508F48EC1EE20EE
:1015900009F45DC0C0909102D0909202E090930255
:1015A000F09094028090990290909A02A0909B02F1
:1015B000B0909C028091CD029091CE02A091CF027A
:1015C000B091D0028F3F9F4FAF4FBF4F11F00E949D
:1015D000910360E070E08AE794E4FFEFCF16F9EC46
:1015E000DF06FAE9EF06FBE3FF0651F0C701B6019B
:1015F0000E94BA0E20E034E244E759E40E945E10F3
:101600006093D3017093D4018093D5019093D60158
:1016100060E070E08AE794E42FEFC21629ECD2066E
:101620002AE9E2062BE3F20651F0C501B4010E945B
:10163000BA0E20E034E244E759E40E945E10609361
:10164000CF017093D0018093D1019093D20181E0BA
:101650008093D7016091D3017091D4018091D5011D
:101660009091D6010E94EF056091CF017091D00159
:101670008091D1019091D2010E94EF0565E671E061
:1016800084EE91E00E949A056CE371E084EE91E0B3
:101690000E949A056FE371E083E193E00E949A054E
:1016A000E0912603E23008F0FBC2E150F0E0ED5E8D
:1016B000FC4F848980680E94E50466E771E083E15D
:1016C00093E00E949A0564EF71E080E090E00E9450
:1016D0005F030E94EB042114310409F49BCE0E94A5
:1016E0000802882309F492CE0E9400008FCEE1E028
:1016F0007DCE0A3209F405C10C3209F0BDC28091D9
:10170000D50280278093D502FCC09091E702F0E0DB
:10171000E952FD4F1082F090D602FF2009F46AC111
:101720002091D702822F022E000C990B3FEB320F33
:10173000363008F0EBC0C7978295807F9091D80231
:10174000292F092E000C330B4FEB490F463008F0C0
:10175000E5C027533109820F9091D502891340C10A
:10176000F090E902FF2009F4CFC08091EE02909141
:10177000EF0201969093EF028093EE028091C902EE
:101780009091CA02A091CB02B091CC028093C50285
:101790009093C602A093C702B093C8028091D10271
:1017A0009091D202A091D302B091D4028093CD0245
:1017B0009093CE02A093CF02B093D0028091E60224
:1017C000882309F4B4C0813009F060C0809185029B
:1017D00090918602A0918702B09188028093810245
:1017E00090938202A0938302B093840280918D0231
:1017F00090918E02A0918F02B09190028093890205
:1018000090938A02A0938B02B0938C0280919502F0
:1018100090919602A0919702B091980280939102C4
:1018200090939202A0939302B093940280919D02B0
:1018300090919E02A0919F02B091A0028093990284
:1018400090939A02A0939B02B0939C028091AD0268
:101850009091AE02A091AF02B091B0028093A90224
:101860009093AA02A093AB02B093AC028091B50210
:101870009091B602A091B702B091B8028093B102E4
:101880009093B202A093B302B093B4028091E702A6
:101890008F5F8093E7021092E80281E00A3209F03C
:1018A00080E08093D602F110EF2C84EE91E00E944C
:1018B000FC01892B09F45FCE84EE91E00E94DA01ED
:1018C000082F8091EA029091EB02A091EC02B09176
:1018D000ED020196A11DB11D8093EA029093EB02E7
:1018E000A093EC02B093ED02043209F4B7C1E09189
:1018F000E80205320CF0FDCE0A3019F00D3009F087
:10190000BBC1EF3008F401CFF12CC0CF21562630F7
:1019100018F48755910910CFC0970ECF9156963085
:1019200018F42755310917CF2053310914CF80916E
:10193000A5029091A602A091A702B091A80280935F
:10194000A1029093A202A093A302B093A40280915B
:10195000850290918602A0918702B09188028093BF
:10196000810290938202A0938302B09384028091BB
:10197000950290919602A0919702B091980280935F
:10198000910290939202A0939302B093940280915B
:101990009D0290919E02A0919F02B091A00280931F
:1019A000990290939A02A0939B02B0939C0280911B
:1019B000C3029091C4029093C2028093C1028091AD
:1019C000BD029091BE02A091BF02B091C00280936F
:1019D000B9029093BA02A093BB02B093BC0256CF57
:1019E0008091F0029091F10201969093F102809320
:1019F000F0028ACF91111DC047ED52E0A9E5B1E098
:101A0000CA01FC012191CF01222309F464C13D9157
:101A10002317B9F3AFE5B1E0FA018191AF01882353
:101A200009F45CC19D918917B9F3E2E0E093E60205
:101A30002DCFE091E602E23009F466CF8091D70223
:101A4000882309F461CF20E2E29FF0011124E92B01
:101A50003197E932F10508F019CFEF5CF24F0C94A1
:101A60004F11770D920DA70DC20DCD0D070E0E0E65
:101A7000180E230E460C460C460C460C460C460C23
:101A8000460C460C460C460C460C460C460C460CC6
:101A9000460C460C460C460C460C460C460C460CB6
:101AA000460C770D8C0D920DA70DC20DCD0DE80DD6
:101AB000F30D5A0DE7EDF2E020E030E0A901D190FE
:101AC00080ED8D0D8A3008F099C0AAE0B0E00E9448
:101AD000D70F2D2DDD0C330B440B550B260F371F65
:101AE000481F591F2053310941095109E8CF0E946D
:101AF0008D00609385027093860280938702909395
:101B000088020E9491036093C9027093CA02809375
:101B1000CB029093CC02BACE91E0813409F47BC021
:101B200090E079C00E94FF00609395027093960246
:101B300080939702909398020E9491036093D10240
:101B40007093D2028093D3029093D4029FCE8335B8
:101B500009F0DACE8091950290919602A0919702B9
:101B6000B0919802B095A095909581959F4FAF4FF9
:101B7000BF4F8093950290939602A0939702B093E3
:101B8000980284CE0E94FF0060939D0270939E0293
:101B900080939F029093A00279CE873509F0B4CE4E
:101BA00080919D0290919E02A0919F02B091A0020F
:101BB000B095A095909581959F4FAF4FBF4F809363
:101BC0009D0290939E02A0939F02B093A0025ECECE
:101BD0000E948D006093AD027093AE028093AF02BD
:101BE0009093B00253CE0E948D006093B502709323
:101BF000B6028093B7029093B80248CE20938D022C
:101C000030938E0240938F02509390023FCE91E02A
:101C100081330CF485CF9093E90238CE87ED92E0C2
:101C20000E948D0E99279093C4028093C3022ECEFA
:101C30000E948D006093BD027093BE028093BF022C
:101C40009093C00223CE0E948D006093A5027093F2
:101C5000A6028093A7029093A80218CE1092E802E1
:101C60001092E7021092D50282E08093E602109271
:101C7000D6021092E90219CEEE3040F481E08E0FC8
:101C80008093E802F0E0E952FD4F00838091D60294
:101C900081110BCE8091D50208270093D50205CE85
:101CA000E1E004CD69817A818B819C810E94EF05FE
:101CB0006D817E818F8198850E94EF0569857A8587
:101CC0008B859C850E94EF0568EE73E080E090E0D4
:101CD0000E945F0300CD1093E602D8CD1092E60279
:101CE000D5CD86E191E09093F5028093F402809146
:101CF000C4019091C501845F924071F4E0910703A3
:101D0000F091080390818091090380958923808355
:101D10001092C5011092C4010895FC0188279927EB
:101D2000E89421912032E9F3293010F02E30C8F3E5
:101D30002B3241F02D3239F4689404C00E94AB0E6E
:101D4000820F911D219120532A30C0F31EF49095EB
:101D500081959F4F08957AE0979F902D879F802DC2
:101D6000910D112408950E94F50E08F481E0089564
:101D7000E89409C097FB3EF4909580957095619525
:101D80007F4F8F4F9F4F9923A9F0F92F96E9BB27DB
:101D90009395F695879577956795B795F111F8CF57
:101DA000FAF4BB0F11F460FF1BC06F5F7F4F8F4FC2
:101DB0009F4F16C0882311F096E911C0772321F0B8
:101DC0009EE8872F762F05C0662371F096E8862F50
:101DD00070E060E02AF09A95660F771F881FDAF7A7
:101DE000880F9695879597F90895990F0008550FD4
:101DF000AA0BE0E8FEEF16161706E807F907C0F091
:101E000012161306E407F50798F0621B730B840B98
:101E1000950B39F40A2661F0232B242B252B21F472
:101E200008950A2609F4A140A6958FEF811D811D12
:101E300008950E942C0F0C949D0F0E948F0F38F074
:101E40000E94960F20F0952311F00C94860F0C94AD
:101E50008C0F11240C94D10F0E94AE0F70F3959F3C
:101E6000C1F3950F50E0551F629FF001729FBB2791
:101E7000F00DB11D639FAA27F00DB11DAA1F649F2D
:101E80006627B00DA11D661F829F2227B00DA11DE0
:101E9000621F739FB00DA11D621F839FA00D611D66
:101EA000221F749F3327A00D611D231F849F600D87
:101EB000211D822F762F6A2F11249F5750409AF0B0
:101EC000F1F088234AF0EE0FFF1FBB1F661F771F3C
:101ED000881F91505040A9F79E3F510580F00C9407
:101EE000860F0C94D10F5F3FE4F3983ED4F38695B0
:101EF00077956795B795F795E7959F5FC1F7FE2BA7
:101F0000880F911D9695879597F9089597F99F6782
:101F100080E870E060E008959FEF80EC0895002471
:101F20000A941616170618060906089500240A943E
:101F300012161306140605060895092E0394000CC4
:101F400011F4882352F0BB0F40F4BF2B11F460FF53
:101F500004C06F5F7F4F8F4F9F4F089557FD90587C
:101F6000440F551F59F05F3F71F04795880F97FB5D
:101F7000991F61F09F3F79F0879508951216130617
:101F80001406551FF2CF4695F1DF08C01616170646
:101F90001806991FF1CF869571056105089408957B
:101FA000E894BB2766277727CB0197F908950E940D
:101FB000E20FA59F900DB49F900DA49F800D911DE1
:101FC00011240895A29FB001B39FC001A39F700D7B
:101FD000811D1124911DB29F700D811D1124911D31
:101FE00008955058BB27AA270E9409100C949D0FF2
:101FF0000E948F0F38F00E94960F20F039F49F3F17
:1020000019F426F40C948C0F0EF4E095E7FB0C9475
:10201000860FE92F0E94AE0F58F3BA1762077307B5
:102020008407950720F079F4A6F50C94D00F0EF4F0
:10203000E0950B2EBA2FA02D0B01B90190010C01D8
:10204000CA01A0011124FF27591B99F0593F50F4F0
:10205000503E68F11A16F040A22F232F342F442748
:10206000585FF3CF469537952795A795F040539540
:10207000C9F77EF41F16BA0B620B730B840BBAF010
:102080009150A1F0FF0FBB1F661F771F881FC2F77B
:102090000EC0BA0F621F731F841F48F4879577958F
:1020A0006795B795F7959E3F08F0B0CF9395880F49
:1020B00008F09927EE0F9795879508950E94721062
:1020C0000C949D0F0E94960F58F00E948F0F40F0C5
:1020D00029F45F3F29F00C94860F51110C94D10F15
:1020E0000C948C0F0E94AE0F68F39923B1F3552323
:1020F00091F3951B550BBB27AA276217730784071B
:1021000038F09F5F5F4F220F331F441FAA1FA9F3B0
:1021100035D00E2E3AF0E0E832D091505040E6959E
:10212000001CCAF72BD0FE2F29D0660F771F881FFF
:10213000BB1F261737074807AB07B0E809F0BB0BF2
:10214000802DBF01FF2793585F4F3AF09E3F510506
:1021500078F00C94860F0C94D10F5F3FE4F3983E17
:10216000D4F3869577956795B795F7959F5FC9F7EF
:10217000880F911D9695879597F90895E1E0660F70
:10218000771F881FBB1F621773078407BA0720F0E9
:10219000621B730B840BBA0BEE1F88F7E095089552
:1021A0000E94B60F88F09F5798F0B92F9927B75122
:1021B000B0F0E1F0660F771F881F991F1AF0BA95EB
:1021C000C9F714C0B13091F00E94D00FB1E008956A
:1021D0000C94D00F672F782F8827B85F39F0B93F5C
:1021E000CCF3869577956795B395D9F73EF490959E
:1021F0008095709561957F4F8F4F9F4F08950E94F6
:10220000F50E08F48FEF08950E94F50E880B990BD8
:102210000895DB018F939F930E94D70FBF91AF91D9
:10222000A29F800D911DA39F900DB29F900D112430
:10223000089597FB072E16F4009407D077FD09D078
:102240000E945D1107FC05D03EF4909581959F4F4B
:102250000895709561957F4F0895A1E21A2EAA1BEB
:10226000BB1BFD010DC0AA1FBB1FEE1FFF1FA21746
:10227000B307E407F50720F0A21BB30BE40BF50B43
:10228000661F771F881F991F1A9469F760957095CC
:10229000809590959B01AC01BD01CF010895EE0F93
:1022A000FF1F0590F491E02D0994B7FF0C94D70F10
:1022B0000E94D70F821B930B0895AA1BBB1B51E1F1
:1022C00007C0AA1FBB1FA617B70710F0A61BB70BA6
:1022D000881F991F5A95A9F780959095BC01CD014B
:1022E000089510E0C2E6D0E004C0FE010E944F1144
:0C22F0002196C336D107C9F7F894FFCF40
:1022FC00000000003E029E01CB018B02FC01DA01C2
:10230C00EE0100000000B7039E014C04B603130459
:10231C002B049E030000000094059E014C049D03B9
:10232C006E616E00696E66006F7666000D0A004184
:10233C0063636964656E7400446574656374696F86
:10234C006E2053797374656D004750524D430047AE
:10235C0050474741004163636964656E745F6F6306
:10236C0063757265640044657465637465642121EA
:02237C0000005F
:00000001FF
